{
  "contractName": "GRWIBank",
  "abi": [
    {
      "constant": true,
      "inputs": [],
      "name": "owner",
      "outputs": [
        {
          "name": "",
          "type": "address"
        }
      ],
      "payable": false,
      "stateMutability": "view",
      "type": "function"
    },
    {
      "constant": true,
      "inputs": [],
      "name": "firstFreeAddressIndex",
      "outputs": [
        {
          "name": "",
          "type": "uint256"
        }
      ],
      "payable": false,
      "stateMutability": "view",
      "type": "function"
    },
    {
      "inputs": [
        {
          "name": "_registry",
          "type": "address"
        }
      ],
      "payable": false,
      "stateMutability": "nonpayable",
      "type": "constructor"
    },
    {
      "constant": true,
      "inputs": [],
      "name": "getToken",
      "outputs": [
        {
          "name": "",
          "type": "address"
        }
      ],
      "payable": false,
      "stateMutability": "view",
      "type": "function"
    },
    {
      "constant": false,
      "inputs": [
        {
          "name": "addr",
          "type": "address"
        }
      ],
      "name": "changeOperatorAccount",
      "outputs": [],
      "payable": false,
      "stateMutability": "nonpayable",
      "type": "function"
    },
    {
      "constant": false,
      "inputs": [
        {
          "name": "newOwner",
          "type": "address"
        }
      ],
      "name": "changeOwner",
      "outputs": [],
      "payable": false,
      "stateMutability": "nonpayable",
      "type": "function"
    },
    {
      "constant": false,
      "inputs": [
        {
          "name": "addressId",
          "type": "uint256"
        }
      ],
      "name": "lock",
      "outputs": [],
      "payable": false,
      "stateMutability": "nonpayable",
      "type": "function"
    },
    {
      "constant": false,
      "inputs": [
        {
          "name": "addressId",
          "type": "uint256"
        },
        {
          "name": "_lockedAmount",
          "type": "uint256"
        }
      ],
      "name": "unlock",
      "outputs": [],
      "payable": false,
      "stateMutability": "nonpayable",
      "type": "function"
    },
    {
      "constant": true,
      "inputs": [
        {
          "name": "addressId",
          "type": "uint256"
        }
      ],
      "name": "getAmount",
      "outputs": [
        {
          "name": "",
          "type": "uint256"
        }
      ],
      "payable": false,
      "stateMutability": "view",
      "type": "function"
    },
    {
      "constant": true,
      "inputs": [
        {
          "name": "addressId",
          "type": "uint256"
        }
      ],
      "name": "isLocked",
      "outputs": [
        {
          "name": "",
          "type": "bool"
        }
      ],
      "payable": false,
      "stateMutability": "view",
      "type": "function"
    },
    {
      "constant": false,
      "inputs": [
        {
          "name": "startHolderId",
          "type": "uint256"
        },
        {
          "name": "endHolderId",
          "type": "uint256"
        }
      ],
      "name": "AssignMultipleAddresses",
      "outputs": [],
      "payable": false,
      "stateMutability": "nonpayable",
      "type": "function"
    },
    {
      "constant": false,
      "inputs": [
        {
          "name": "holderId",
          "type": "uint256"
        },
        {
          "name": "sendBackAddress",
          "type": "address"
        }
      ],
      "name": "bindWithWithdrawAccount",
      "outputs": [],
      "payable": false,
      "stateMutability": "nonpayable",
      "type": "function"
    },
    {
      "constant": false,
      "inputs": [
        {
          "name": "holderId",
          "type": "uint256"
        }
      ],
      "name": "AssignAddress",
      "outputs": [],
      "payable": false,
      "stateMutability": "nonpayable",
      "type": "function"
    },
    {
      "constant": true,
      "inputs": [
        {
          "name": "holderId",
          "type": "uint256"
        }
      ],
      "name": "GetAssignedAddress",
      "outputs": [
        {
          "name": "",
          "type": "address"
        }
      ],
      "payable": false,
      "stateMutability": "view",
      "type": "function"
    }
  ],
  "bytecode": "0x60606040526000600555341561001457600080fd5b604051602080611f458339810160405280805190602001909190505080600260006101000a81548173ffffffffffffffffffffffffffffffffffffffff021916908373ffffffffffffffffffffffffffffffffffffffff160217905550336000806101000a81548173ffffffffffffffffffffffffffffffffffffffff021916908373ffffffffffffffffffffffffffffffffffffffff16021790555050611e84806100c16000396000f3006060604052600436106100c5576000357c0100000000000000000000000000000000000000000000000000000000900463ffffffff16806309de5217146100ca5780631b6527b41461010357806321df0da7146101665780632c537c85146101bb5780635bfadb24146101fd5780637dfda44c146102295780638da5cb5b1461024c5780639980ec86146102a1578063a6f9dae1146102d8578063c7daae0a14610311578063d53df3291461033a578063dd46706414610366578063f6aacfb114610389575b600080fd5b34156100d557600080fd5b610101600480803573ffffffffffffffffffffffffffffffffffffffff169060200190919050506103c4565b005b341561010e57600080fd5b6101246004808035906020019091905050610515565b604051808273ffffffffffffffffffffffffffffffffffffffff1673ffffffffffffffffffffffffffffffffffffffff16815260200191505060405180910390f35b341561017157600080fd5b610179610552565b604051808273ffffffffffffffffffffffffffffffffffffffff1673ffffffffffffffffffffffffffffffffffffffff16815260200191505060405180910390f35b34156101c657600080fd5b6101fb600480803590602001909190803573ffffffffffffffffffffffffffffffffffffffff1690602001909190505061063e565b005b341561020857600080fd5b6102276004808035906020019091908035906020019091905050610723565b005b341561023457600080fd5b61024a6004808035906020019091905050610899565b005b341561025757600080fd5b61025f610a5f565b604051808273ffffffffffffffffffffffffffffffffffffffff1673ffffffffffffffffffffffffffffffffffffffff16815260200191505060405180910390f35b34156102ac57600080fd5b6102c26004808035906020019091905050610a84565b6040518082815260200191505060405180910390f35b34156102e357600080fd5b61030f600480803573ffffffffffffffffffffffffffffffffffffffff16906020019091905050610c03565b005b341561031c57600080fd5b610324610d5c565b6040518082815260200191505060405180910390f35b341561034557600080fd5b6103646004808035906020019091908035906020019091905050610d62565b005b341561037157600080fd5b6103876004808035906020019091905050610eef565b005b341561039457600080fd5b6103aa6004808035906020019091905050611059565b604051808215151515815260200191505060405180910390f35b6000809054906101000a900473ffffffffffffffffffffffffffffffffffffffff1673ffffffffffffffffffffffffffffffffffffffff163373ffffffffffffffffffffffffffffffffffffffff16148061046c5750600160009054906101000a900473ffffffffffffffffffffffffffffffffffffffff1673ffffffffffffffffffffffffffffffffffffffff163373ffffffffffffffffffffffffffffffffffffffff16145b1561050d576000809054906101000a900473ffffffffffffffffffffffffffffffffffffffff1673ffffffffffffffffffffffffffffffffffffffff163373ffffffffffffffffffffffffffffffffffffffff1614156105085780600160006101000a81548173ffffffffffffffffffffffffffffffffffffffff021916908373ffffffffffffffffffffffffffffffffffffffff1602179055505b610512565b600080fd5b50565b60006004600083815260200190815260200160002060009054906101000a900473ffffffffffffffffffffffffffffffffffffffff169050919050565b6000600260009054906101000a900473ffffffffffffffffffffffffffffffffffffffff1673ffffffffffffffffffffffffffffffffffffffff1663bf40fac16000604051602001526040518163ffffffff167c01000000000000000000000000000000000000000000000000000000000281526004018080602001828103825260098152602001807f47525749546f6b656e0000000000000000000000000000000000000000000000815250602001915050602060405180830381600087803b151561061e57600080fd5b6102c65a03f1151561062f57600080fd5b50505060405180519050905090565b6004600083815260200190815260200160002060009054906101000a900473ffffffffffffffffffffffffffffffffffffffff1673ffffffffffffffffffffffffffffffffffffffff16633ab1a494826040518263ffffffff167c0100000000000000000000000000000000000000000000000000000000028152600401808273ffffffffffffffffffffffffffffffffffffffff1673ffffffffffffffffffffffffffffffffffffffff168152602001915050600060405180830381600087803b151561070b57600080fd5b6102c65a03f1151561071c57600080fd5b5050505050565b60008060009054906101000a900473ffffffffffffffffffffffffffffffffffffffff1673ffffffffffffffffffffffffffffffffffffffff163373ffffffffffffffffffffffffffffffffffffffff1614806107cd5750600160009054906101000a900473ffffffffffffffffffffffffffffffffffffffff1673ffffffffffffffffffffffffffffffffffffffff163373ffffffffffffffffffffffffffffffffffffffff16145b1561088f576004600084815260200190815260200160002060009054906101000a900473ffffffffffffffffffffffffffffffffffffffff1690508073ffffffffffffffffffffffffffffffffffffffff16636198e339836040518263ffffffff167c010000000000000000000000000000000000000000000000000000000002815260040180828152602001915050600060405180830381600087803b151561087657600080fd5b6102c65a03f1151561088757600080fd5b505050610894565b600080fd5b505050565b6000809054906101000a900473ffffffffffffffffffffffffffffffffffffffff1673ffffffffffffffffffffffffffffffffffffffff163373ffffffffffffffffffffffffffffffffffffffff1614806109415750600160009054906101000a900473ffffffffffffffffffffffffffffffffffffffff1673ffffffffffffffffffffffffffffffffffffffff163373ffffffffffffffffffffffffffffffffffffffff16145b15610a575760006004600083815260200190815260200160002060009054906101000a900473ffffffffffffffffffffffffffffffffffffffff1673ffffffffffffffffffffffffffffffffffffffff1614151561099e57610a52565b60006109a86111d8565b14156109b7576109b66112a0565b5b60036005548154811015156109c857fe5b906000526020600020900160009054906101000a900473ffffffffffffffffffffffffffffffffffffffff166004600083815260200190815260200160002060006101000a81548173ffffffffffffffffffffffffffffffffffffffff021916908373ffffffffffffffffffffffffffffffffffffffff1602179055506001600554016005819055505b610a5c565b600080fd5b50565b6000809054906101000a900473ffffffffffffffffffffffffffffffffffffffff1681565b6000806000809054906101000a900473ffffffffffffffffffffffffffffffffffffffff1673ffffffffffffffffffffffffffffffffffffffff163373ffffffffffffffffffffffffffffffffffffffff161480610b2f5750600160009054906101000a900473ffffffffffffffffffffffffffffffffffffffff1673ffffffffffffffffffffffffffffffffffffffff163373ffffffffffffffffffffffffffffffffffffffff16145b15610bf8576004600084815260200190815260200160002060009054906101000a900473ffffffffffffffffffffffffffffffffffffffff1690508073ffffffffffffffffffffffffffffffffffffffff1663d321fe296000604051602001526040518163ffffffff167c0100000000000000000000000000000000000000000000000000000000028152600401602060405180830381600087803b1515610bd657600080fd5b6102c65a03f11515610be757600080fd5b505050604051805190509150610bfd565b600080fd5b50919050565b6000809054906101000a900473ffffffffffffffffffffffffffffffffffffffff1673ffffffffffffffffffffffffffffffffffffffff163373ffffffffffffffffffffffffffffffffffffffff161480610cab5750600160009054906101000a900473ffffffffffffffffffffffffffffffffffffffff1673ffffffffffffffffffffffffffffffffffffffff163373ffffffffffffffffffffffffffffffffffffffff16145b15610d54576000809054906101000a900473ffffffffffffffffffffffffffffffffffffffff1673ffffffffffffffffffffffffffffffffffffffff163373ffffffffffffffffffffffffffffffffffffffff161415610d4a57806000806101000a81548173ffffffffffffffffffffffffffffffffffffffff021916908373ffffffffffffffffffffffffffffffffffffffff160217905550610d4f565b600080fd5b610d59565b600080fd5b50565b60055481565b60008060009054906101000a900473ffffffffffffffffffffffffffffffffffffffff1673ffffffffffffffffffffffffffffffffffffffff163373ffffffffffffffffffffffffffffffffffffffff161480610e0c5750600160009054906101000a900473ffffffffffffffffffffffffffffffffffffffff1673ffffffffffffffffffffffffffffffffffffffff163373ffffffffffffffffffffffffffffffffffffffff16145b15610ee557818311151515610e2057600080fd5b8290505b81811015610ee0576000610e366111d8565b1415610e4557610e446112a0565b5b6003600554815481101515610e5657fe5b906000526020600020900160009054906101000a900473ffffffffffffffffffffffffffffffffffffffff166004600083815260200190815260200160002060006101000a81548173ffffffffffffffffffffffffffffffffffffffff021916908373ffffffffffffffffffffffffffffffffffffffff1602179055508080600101915050610e24565b610eea565b600080fd5b505050565b60008060009054906101000a900473ffffffffffffffffffffffffffffffffffffffff1673ffffffffffffffffffffffffffffffffffffffff163373ffffffffffffffffffffffffffffffffffffffff161480610f995750600160009054906101000a900473ffffffffffffffffffffffffffffffffffffffff1673ffffffffffffffffffffffffffffffffffffffff163373ffffffffffffffffffffffffffffffffffffffff16145b15611050576004600083815260200190815260200160002060009054906101000a900473ffffffffffffffffffffffffffffffffffffffff1690508073ffffffffffffffffffffffffffffffffffffffff1663f83d08ba6040518163ffffffff167c0100000000000000000000000000000000000000000000000000000000028152600401600060405180830381600087803b151561103757600080fd5b6102c65a03f1151561104857600080fd5b505050611055565b600080fd5b5050565b6000806000809054906101000a900473ffffffffffffffffffffffffffffffffffffffff1673ffffffffffffffffffffffffffffffffffffffff163373ffffffffffffffffffffffffffffffffffffffff1614806111045750600160009054906101000a900473ffffffffffffffffffffffffffffffffffffffff1673ffffffffffffffffffffffffffffffffffffffff163373ffffffffffffffffffffffffffffffffffffffff16145b156111cd576004600084815260200190815260200160002060009054906101000a900473ffffffffffffffffffffffffffffffffffffffff1690508073ffffffffffffffffffffffffffffffffffffffff1663a4e2d6346000604051602001526040518163ffffffff167c0100000000000000000000000000000000000000000000000000000000028152600401602060405180830381600087803b15156111ab57600080fd5b6102c65a03f115156111bc57600080fd5b5050506040518051905091506111d2565b600080fd5b50919050565b60008060009054906101000a900473ffffffffffffffffffffffffffffffffffffffff1673ffffffffffffffffffffffffffffffffffffffff163373ffffffffffffffffffffffffffffffffffffffff1614806112825750600160009054906101000a900473ffffffffffffffffffffffffffffffffffffffff1673ffffffffffffffffffffffffffffffffffffffff163373ffffffffffffffffffffffffffffffffffffffff16145b156112985760055460038054905003905061129d565b600080fd5b90565b60008060009054906101000a900473ffffffffffffffffffffffffffffffffffffffff1673ffffffffffffffffffffffffffffffffffffffff163373ffffffffffffffffffffffffffffffffffffffff16148061134a5750600160009054906101000a900473ffffffffffffffffffffffffffffffffffffffff1673ffffffffffffffffffffffffffffffffffffffff163373ffffffffffffffffffffffffffffffffffffffff16145b1561141557611357610552565b61135f61141d565b808273ffffffffffffffffffffffffffffffffffffffff1673ffffffffffffffffffffffffffffffffffffffff168152602001915050604051809103906000f08015156113ab57600080fd5b9050600380548060010182816113c1919061142d565b9160005260206000209001600083909190916101000a81548173ffffffffffffffffffffffffffffffffffffffff021916908373ffffffffffffffffffffffffffffffffffffffff1602179055505061141a565b600080fd5b50565b6040516109da8061147f83390190565b815481835581811511611454578183600052602060002091820191016114539190611459565b5b505050565b61147b91905b8082111561147757600081600090555060010161145f565b5090565b9056006060604052341561000f57600080fd5b6040516020806109da83398101604052808051906020019091905050336000806101000a81548173ffffffffffffffffffffffffffffffffffffffff021916908373ffffffffffffffffffffffffffffffffffffffff16021790555080600360006101000a81548173ffffffffffffffffffffffffffffffffffffffff021916908373ffffffffffffffffffffffffffffffffffffffff1602179055505061091e806100bc6000396000f300606060405260043610610083576000357c0100000000000000000000000000000000000000000000000000000000900463ffffffff16806321df0da7146100885780633ab1a494146100dd5780633ccfd60b146101165780636198e33914610143578063a4e2d63414610166578063d321fe2914610193578063f83d08ba146101bc575b600080fd5b341561009357600080fd5b61009b6101d1565b604051808273ffffffffffffffffffffffffffffffffffffffff1673ffffffffffffffffffffffffffffffffffffffff16815260200191505060405180910390f35b34156100e857600080fd5b610114600480803573ffffffffffffffffffffffffffffffffffffffff169060200190919050506102bd565b005b341561012157600080fd5b61012961035c565b604051808215151515815260200191505060405180910390f35b341561014e57600080fd5b61016460048080359060200190919050506105cb565b005b341561017157600080fd5b610179610769565b604051808215151515815260200191505060405180910390f35b341561019e57600080fd5b6101a6610780565b6040518082815260200191505060405180910390f35b34156101c757600080fd5b6101cf61078a565b005b6000600360009054906101000a900473ffffffffffffffffffffffffffffffffffffffff1673ffffffffffffffffffffffffffffffffffffffff1663bf40fac16000604051602001526040518163ffffffff167c01000000000000000000000000000000000000000000000000000000000281526004018080602001828103825260098152602001807f47525749546f6b656e0000000000000000000000000000000000000000000000815250602001915050602060405180830381600087803b151561029d57600080fd5b6102c65a03f115156102ae57600080fd5b50505060405180519050905090565b6000809054906101000a900473ffffffffffffffffffffffffffffffffffffffff1673ffffffffffffffffffffffffffffffffffffffff163373ffffffffffffffffffffffffffffffffffffffff1614151561031857600080fd5b80600160006101000a81548173ffffffffffffffffffffffffffffffffffffffff021916908373ffffffffffffffffffffffffffffffffffffffff16021790555050565b60008060009054906101000a900473ffffffffffffffffffffffffffffffffffffffff1673ffffffffffffffffffffffffffffffffffffffff163373ffffffffffffffffffffffffffffffffffffffff16141580156104095750600160009054906101000a900473ffffffffffffffffffffffffffffffffffffffff1673ffffffffffffffffffffffffffffffffffffffff163373ffffffffffffffffffffffffffffffffffffffff1614155b1561041357600080fd5b61041b6101d1565b73ffffffffffffffffffffffffffffffffffffffff1663a9059cbb600160009054906101000a900473ffffffffffffffffffffffffffffffffffffffff166104616101d1565b73ffffffffffffffffffffffffffffffffffffffff166370a08231306000604051602001526040518263ffffffff167c0100000000000000000000000000000000000000000000000000000000028152600401808273ffffffffffffffffffffffffffffffffffffffff1673ffffffffffffffffffffffffffffffffffffffff168152602001915050602060405180830381600087803b151561050357600080fd5b6102c65a03f1151561051457600080fd5b505050604051805190506000604051602001526040518363ffffffff167c0100000000000000000000000000000000000000000000000000000000028152600401808373ffffffffffffffffffffffffffffffffffffffff1673ffffffffffffffffffffffffffffffffffffffff16815260200182815260200192505050602060405180830381600087803b15156105ab57600080fd5b6102c65a03f115156105bc57600080fd5b50505060405180519050905090565b6000809054906101000a900473ffffffffffffffffffffffffffffffffffffffff1673ffffffffffffffffffffffffffffffffffffffff163373ffffffffffffffffffffffffffffffffffffffff1614151561062657600080fd5b600160149054906101000a900460ff168015610643575080600254145b15610761576106506101d1565b73ffffffffffffffffffffffffffffffffffffffff1663a9059cbb6000809054906101000a900473ffffffffffffffffffffffffffffffffffffffff166002546000604051602001526040518363ffffffff167c0100000000000000000000000000000000000000000000000000000000028152600401808373ffffffffffffffffffffffffffffffffffffffff1673ffffffffffffffffffffffffffffffffffffffff16815260200182815260200192505050602060405180830381600087803b151561071d57600080fd5b6102c65a03f1151561072e57600080fd5b505050604051805190505060006002819055506000600160146101000a81548160ff021916908315150217905550610766565b600080fd5b50565b6000600160149054906101000a900460ff16905090565b6000600254905090565b6000809054906101000a900473ffffffffffffffffffffffffffffffffffffffff1673ffffffffffffffffffffffffffffffffffffffff163373ffffffffffffffffffffffffffffffffffffffff161415156107e557600080fd5b60001515600160149054906101000a900460ff16151514156108eb5760018060146101000a81548160ff0219169083151502179055506108236101d1565b73ffffffffffffffffffffffffffffffffffffffff166370a08231306000604051602001526040518263ffffffff167c0100000000000000000000000000000000000000000000000000000000028152600401808273ffffffffffffffffffffffffffffffffffffffff1673ffffffffffffffffffffffffffffffffffffffff168152602001915050602060405180830381600087803b15156108c557600080fd5b6102c65a03f115156108d657600080fd5b505050604051805190506002819055506108f0565b600080fd5b5600a165627a7a72305820b07626c0e2d8de1203627edd3a022d3844916b8f795124349307150b4d4944650029a165627a7a723058207733c1274caa773af0d92c6dceca9b4aadd3d09fe7fd5573ff1cea69be7a3d310029",
  "source": "pragma solidity ^0.4.4;\n\nimport './GRWIBankAccount.sol';\n\ncontract GRWIBank {\n\n    address public owner ;\n    address private operator ;\n    NameRegistry private registry;\n\tGRWIBankAccount[] private availableAddresses;\n    mapping(uint256 => address) private assignments ;\n\t\n\n    uint256 public firstFreeAddressIndex = 0;\n    \n    modifier onlyTrusted{\n        if(msg.sender == owner || msg.sender == operator){\n            _;\n        }\n        else{\n            revert();\n        }\n    }\n    \n    function getToken() public constant returns(address){\n        return registry.getAddress(\"GRWIToken\");\n    }\n\n    function changeOperatorAccount(address addr) onlyTrusted public{\n        if(msg.sender==owner){\n            operator = addr;\n        }\n    }    \n    function changeOwner(address newOwner) onlyTrusted public{\n        if(msg.sender==owner){\n            owner = newOwner;\n        }\n        else{\n          revert();   \n        \n        }\n    }\n    function GRWIBank(address _registry)  public{\n        registry = NameRegistry(_registry);\n        owner = msg.sender;\n    }\t\n    function createNewAccount() onlyTrusted internal{\n        var a = new GRWIBankAccount(getToken());\n        availableAddresses.push(a);\n    }\n    function lock(uint256 addressId) onlyTrusted public {\n        GRWIBankAccount b = GRWIBankAccount(assignments[addressId]);\n        b.lock();\n    }\n    function unlock(uint256 addressId,uint256 _lockedAmount) onlyTrusted public{\n        GRWIBankAccount b = GRWIBankAccount(assignments[addressId]);\n        b.unlock(_lockedAmount);\n    }\n    function getAmount(uint256 addressId) constant onlyTrusted public returns(uint256){\n        GRWIBankAccount b = GRWIBankAccount(assignments[addressId]);\n        return b.getAmount();\n    }\n    function isLocked(uint256 addressId) constant onlyTrusted public returns(bool){\n        GRWIBankAccount b = GRWIBankAccount(assignments[addressId]);\n        return b.isLocked();\n    }\n    \n    function getAvailableAddressesCount() private constant onlyTrusted returns(uint256){\n        return availableAddresses.length-firstFreeAddressIndex;\n    }\n    \n    function AssignMultipleAddresses(uint256 startHolderId,uint256 endHolderId) onlyTrusted public{\n        require(startHolderId<=endHolderId);\n        for(uint256 i = startHolderId; i<endHolderId ; i++){\n          if(getAvailableAddressesCount()==0){\n            createNewAccount();\n          }\n          assignments[i] = availableAddresses[firstFreeAddressIndex];\n        }\n    }\n    \n    function bindWithWithdrawAccount(uint256 holderId, address sendBackAddress){\n      (GRWIBankAccount(assignments[holderId])).setWithdrawAddress(sendBackAddress);\n    }\n    \n    function AssignAddress(uint256 holderId) public{\n        if(msg.sender==owner || msg.sender==operator){\n            if(assignments[holderId]!=0){ // nie można stworzyć 2 adresów dla jednego klienta\n    \n            }\n            else{\n                if(getAvailableAddressesCount()==0){\n                        createNewAccount();\n                }\n                assignments[holderId] = availableAddresses[firstFreeAddressIndex];\n                firstFreeAddressIndex = firstFreeAddressIndex+1;\n            }\n        }\n        else{\n          revert();   \n        \n        }\n\n    }\n    function GetAssignedAddress(uint256 holderId) public constant returns(address){\n         return assignments[holderId];\n    }\n}\n",
  "sourcePath": "/home/ec2-user/environment/GRWI_Tools/BlockchainSolutions/contracts/GRWIBank.sol",
  "compiler": {
    "name": "solc",
    "version": "0.4.19+commit.c4cbbb05.Emscripten.clang"
  },
  "schemaVersion": "1.0.1",
  "updatedAt": "2018-03-08T00:28:47.029Z"
}