{
  "contractName": "GRWIBankAccount",
  "abi": [
    {
      "constant": true,
      "inputs": [],
      "name": "getToken",
      "outputs": [
        {
          "name": "",
          "type": "address"
        }
      ],
      "payable": false,
      "stateMutability": "view",
      "type": "function"
    },
    {
      "constant": false,
      "inputs": [
        {
          "name": "_adr",
          "type": "address"
        }
      ],
      "name": "setWithdrawAddress",
      "outputs": [],
      "payable": false,
      "stateMutability": "nonpayable",
      "type": "function"
    },
    {
      "constant": false,
      "inputs": [],
      "name": "withdraw",
      "outputs": [
        {
          "name": "",
          "type": "bool"
        }
      ],
      "payable": false,
      "stateMutability": "nonpayable",
      "type": "function"
    },
    {
      "constant": false,
      "inputs": [
        {
          "name": "_lockedAmount",
          "type": "uint256"
        }
      ],
      "name": "unlock",
      "outputs": [],
      "payable": false,
      "stateMutability": "nonpayable",
      "type": "function"
    },
    {
      "constant": true,
      "inputs": [],
      "name": "isLocked",
      "outputs": [
        {
          "name": "",
          "type": "bool"
        }
      ],
      "payable": false,
      "stateMutability": "view",
      "type": "function"
    },
    {
      "constant": true,
      "inputs": [],
      "name": "getAmount",
      "outputs": [
        {
          "name": "",
          "type": "uint256"
        }
      ],
      "payable": false,
      "stateMutability": "view",
      "type": "function"
    },
    {
      "constant": false,
      "inputs": [],
      "name": "lock",
      "outputs": [],
      "payable": false,
      "stateMutability": "nonpayable",
      "type": "function"
    },
    {
      "inputs": [
        {
          "name": "_registry",
          "type": "address"
        }
      ],
      "payable": false,
      "stateMutability": "nonpayable",
      "type": "constructor"
    }
  ],
  "bytecode": "0x6060604052341561000f57600080fd5b6040516020806109da83398101604052808051906020019091905050336000806101000a81548173ffffffffffffffffffffffffffffffffffffffff021916908373ffffffffffffffffffffffffffffffffffffffff16021790555080600360006101000a81548173ffffffffffffffffffffffffffffffffffffffff021916908373ffffffffffffffffffffffffffffffffffffffff1602179055505061091e806100bc6000396000f300606060405260043610610083576000357c0100000000000000000000000000000000000000000000000000000000900463ffffffff16806321df0da7146100885780633ab1a494146100dd5780633ccfd60b146101165780636198e33914610143578063a4e2d63414610166578063d321fe2914610193578063f83d08ba146101bc575b600080fd5b341561009357600080fd5b61009b6101d1565b604051808273ffffffffffffffffffffffffffffffffffffffff1673ffffffffffffffffffffffffffffffffffffffff16815260200191505060405180910390f35b34156100e857600080fd5b610114600480803573ffffffffffffffffffffffffffffffffffffffff169060200190919050506102bd565b005b341561012157600080fd5b61012961035c565b604051808215151515815260200191505060405180910390f35b341561014e57600080fd5b61016460048080359060200190919050506105cb565b005b341561017157600080fd5b610179610769565b604051808215151515815260200191505060405180910390f35b341561019e57600080fd5b6101a6610780565b6040518082815260200191505060405180910390f35b34156101c757600080fd5b6101cf61078a565b005b6000600360009054906101000a900473ffffffffffffffffffffffffffffffffffffffff1673ffffffffffffffffffffffffffffffffffffffff1663bf40fac16000604051602001526040518163ffffffff167c01000000000000000000000000000000000000000000000000000000000281526004018080602001828103825260098152602001807f47525749546f6b656e0000000000000000000000000000000000000000000000815250602001915050602060405180830381600087803b151561029d57600080fd5b6102c65a03f115156102ae57600080fd5b50505060405180519050905090565b6000809054906101000a900473ffffffffffffffffffffffffffffffffffffffff1673ffffffffffffffffffffffffffffffffffffffff163373ffffffffffffffffffffffffffffffffffffffff1614151561031857600080fd5b80600160006101000a81548173ffffffffffffffffffffffffffffffffffffffff021916908373ffffffffffffffffffffffffffffffffffffffff16021790555050565b60008060009054906101000a900473ffffffffffffffffffffffffffffffffffffffff1673ffffffffffffffffffffffffffffffffffffffff163373ffffffffffffffffffffffffffffffffffffffff16141580156104095750600160009054906101000a900473ffffffffffffffffffffffffffffffffffffffff1673ffffffffffffffffffffffffffffffffffffffff163373ffffffffffffffffffffffffffffffffffffffff1614155b1561041357600080fd5b61041b6101d1565b73ffffffffffffffffffffffffffffffffffffffff1663a9059cbb600160009054906101000a900473ffffffffffffffffffffffffffffffffffffffff166104616101d1565b73ffffffffffffffffffffffffffffffffffffffff166370a08231306000604051602001526040518263ffffffff167c0100000000000000000000000000000000000000000000000000000000028152600401808273ffffffffffffffffffffffffffffffffffffffff1673ffffffffffffffffffffffffffffffffffffffff168152602001915050602060405180830381600087803b151561050357600080fd5b6102c65a03f1151561051457600080fd5b505050604051805190506000604051602001526040518363ffffffff167c0100000000000000000000000000000000000000000000000000000000028152600401808373ffffffffffffffffffffffffffffffffffffffff1673ffffffffffffffffffffffffffffffffffffffff16815260200182815260200192505050602060405180830381600087803b15156105ab57600080fd5b6102c65a03f115156105bc57600080fd5b50505060405180519050905090565b6000809054906101000a900473ffffffffffffffffffffffffffffffffffffffff1673ffffffffffffffffffffffffffffffffffffffff163373ffffffffffffffffffffffffffffffffffffffff1614151561062657600080fd5b600160149054906101000a900460ff168015610643575080600254145b15610761576106506101d1565b73ffffffffffffffffffffffffffffffffffffffff1663a9059cbb6000809054906101000a900473ffffffffffffffffffffffffffffffffffffffff166002546000604051602001526040518363ffffffff167c0100000000000000000000000000000000000000000000000000000000028152600401808373ffffffffffffffffffffffffffffffffffffffff1673ffffffffffffffffffffffffffffffffffffffff16815260200182815260200192505050602060405180830381600087803b151561071d57600080fd5b6102c65a03f1151561072e57600080fd5b505050604051805190505060006002819055506000600160146101000a81548160ff021916908315150217905550610766565b600080fd5b50565b6000600160149054906101000a900460ff16905090565b6000600254905090565b6000809054906101000a900473ffffffffffffffffffffffffffffffffffffffff1673ffffffffffffffffffffffffffffffffffffffff163373ffffffffffffffffffffffffffffffffffffffff161415156107e557600080fd5b60001515600160149054906101000a900460ff16151514156108eb5760018060146101000a81548160ff0219169083151502179055506108236101d1565b73ffffffffffffffffffffffffffffffffffffffff166370a08231306000604051602001526040518263ffffffff167c0100000000000000000000000000000000000000000000000000000000028152600401808273ffffffffffffffffffffffffffffffffffffffff1673ffffffffffffffffffffffffffffffffffffffff168152602001915050602060405180830381600087803b15156108c557600080fd5b6102c65a03f115156108d657600080fd5b505050604051805190506002819055506108f0565b600080fd5b5600a165627a7a72305820b07626c0e2d8de1203627edd3a022d3844916b8f795124349307150b4d4944650029",
  "source": "pragma solidity ^0.4.19;\nimport './NameRegistry.sol';\n\n\ncontract ForeignToken {\n    function balanceOf(address _owner) constant returns (uint256);\n    function transfer(address _to, uint256 _value) returns (bool);\n}\n\n//contract by Adam Skrodzki\ncontract GRWIBankAccount {\n\taddress private main;\n\taddress private _withdraw;\n\tbool isLockedFlag;\n\tuint256 lockedAmount ;\n\tNameRegistry private registry;\n\t\n\tmodifier onlyBank{\n\t    if(msg.sender!=main){\n\t        revert();\n\t    }\n\t    else{\n\t        _;\n\t    }\n\t}\n\t\n\tmodifier onlyBankOrWithdraw{\n\t    if(msg.sender!=main && msg.sender!=_withdraw){\n\t        revert();\n\t    }\n\t    else{\n\t        _;\n\t    }\n\t}\n\t\n    function getToken() public constant returns(ForeignToken){\n        return ForeignToken(registry.getAddress(\"GRWIToken\"));\n    }\n\t\n\tfunction GRWIBankAccount(address _registry) public{\n\t    main = msg.sender;\n\t    registry = NameRegistry(_registry);\n\t    \n\t}\n\t\n\tfunction withdraw() public onlyBankOrWithdraw returns(bool){\n\t  return(getToken().transfer(_withdraw,getToken().balanceOf(this)));\n\t}\n\t\n\tfunction setWithdrawAddress(address _adr) public onlyBank{\n\t    _withdraw = _adr;\n\t}\n\t\n\tfunction lock() public onlyBank{\n\t    if(isLockedFlag==false){\n\t        isLockedFlag = true;\n\t        lockedAmount = getToken().balanceOf(this);\n\t    }\n\t    else{\n\t      revert();\n\t    }\n\t}\n\t\n\tfunction isLocked() public constant returns(bool){\n\t    return isLockedFlag;\n\t}\n\t\n\tfunction getAmount() public constant returns(uint256){\n\t    return lockedAmount;\n\t}\n\t\n\t\n\tfunction unlock(uint256 _lockedAmount) public onlyBank{\n\t    if(isLockedFlag && lockedAmount == _lockedAmount){\n\t        getToken().transfer(main,lockedAmount);\n\t        lockedAmount = 0;\n\t        isLockedFlag = false;\n\t    }\n\t    else{\n\t        revert();\n\t    }\n\t}\n\t\n}",
  "sourcePath": "/home/ec2-user/environment/GRWI_Tools/BlockchainSolutions/contracts/GRWIBankAccount.sol",
  "compiler": {
    "name": "solc",
    "version": "0.4.19+commit.c4cbbb05.Emscripten.clang"
  },
  "schemaVersion": "1.0.1",
  "updatedAt": "2018-03-08T00:28:47.035Z"
}