{
  "contractName": "GRWIBank",
  "abi": [
    {
      "constant": true,
      "inputs": [],
      "name": "owner",
      "outputs": [
        {
          "name": "",
          "type": "address"
        }
      ],
      "payable": false,
      "stateMutability": "view",
      "type": "function"
    },
    {
      "constant": true,
      "inputs": [],
      "name": "firstFreeAddressIndex",
      "outputs": [
        {
          "name": "",
          "type": "uint256"
        }
      ],
      "payable": false,
      "stateMutability": "view",
      "type": "function"
    },
    {
      "inputs": [
        {
          "name": "_token",
          "type": "address"
        }
      ],
      "payable": false,
      "stateMutability": "nonpayable",
      "type": "constructor"
    },
    {
      "constant": false,
      "inputs": [
        {
          "name": "addr",
          "type": "address"
        }
      ],
      "name": "changeOperatorAccount",
      "outputs": [],
      "payable": false,
      "stateMutability": "nonpayable",
      "type": "function"
    },
    {
      "constant": false,
      "inputs": [
        {
          "name": "newOwner",
          "type": "address"
        }
      ],
      "name": "changeOwner",
      "outputs": [],
      "payable": false,
      "stateMutability": "nonpayable",
      "type": "function"
    },
    {
      "constant": false,
      "inputs": [
        {
          "name": "addressId",
          "type": "uint256"
        }
      ],
      "name": "lock",
      "outputs": [],
      "payable": false,
      "stateMutability": "nonpayable",
      "type": "function"
    },
    {
      "constant": false,
      "inputs": [
        {
          "name": "addressId",
          "type": "uint256"
        },
        {
          "name": "_lockedAmount",
          "type": "uint256"
        }
      ],
      "name": "unlock",
      "outputs": [],
      "payable": false,
      "stateMutability": "nonpayable",
      "type": "function"
    },
    {
      "constant": true,
      "inputs": [
        {
          "name": "addressId",
          "type": "uint256"
        }
      ],
      "name": "getAmount",
      "outputs": [
        {
          "name": "",
          "type": "uint256"
        }
      ],
      "payable": false,
      "stateMutability": "view",
      "type": "function"
    },
    {
      "constant": true,
      "inputs": [
        {
          "name": "addressId",
          "type": "uint256"
        }
      ],
      "name": "isLocked",
      "outputs": [
        {
          "name": "",
          "type": "bool"
        }
      ],
      "payable": false,
      "stateMutability": "view",
      "type": "function"
    },
    {
      "constant": false,
      "inputs": [
        {
          "name": "startHolderId",
          "type": "uint256"
        },
        {
          "name": "endHolderId",
          "type": "uint256"
        }
      ],
      "name": "AssignMultipleAddresses",
      "outputs": [],
      "payable": false,
      "stateMutability": "nonpayable",
      "type": "function"
    },
    {
      "constant": false,
      "inputs": [
        {
          "name": "holderId",
          "type": "uint256"
        },
        {
          "name": "sendBackAddress",
          "type": "address"
        }
      ],
      "name": "bindWithWithdrawAccount",
      "outputs": [],
      "payable": false,
      "stateMutability": "nonpayable",
      "type": "function"
    },
    {
      "constant": false,
      "inputs": [
        {
          "name": "holderId",
          "type": "uint256"
        }
      ],
      "name": "AssignAddress",
      "outputs": [],
      "payable": false,
      "stateMutability": "nonpayable",
      "type": "function"
    },
    {
      "constant": true,
      "inputs": [
        {
          "name": "holderId",
          "type": "uint256"
        }
      ],
      "name": "GetAssignedAddress",
      "outputs": [
        {
          "name": "",
          "type": "address"
        }
      ],
      "payable": false,
      "stateMutability": "view",
      "type": "function"
    }
  ],
  "bytecode": "0x60606040526000600555341561001457600080fd5b604051602080611ded833981016040528080519060200190919050506000809054906101000a900473ffffffffffffffffffffffffffffffffffffffff1673ffffffffffffffffffffffffffffffffffffffff163373ffffffffffffffffffffffffffffffffffffffff1614806100d85750600160009054906101000a900473ffffffffffffffffffffffffffffffffffffffff1673ffffffffffffffffffffffffffffffffffffffff163373ffffffffffffffffffffffffffffffffffffffff16145b1561016357336000806101000a81548173ffffffffffffffffffffffffffffffffffffffff021916908373ffffffffffffffffffffffffffffffffffffffff16021790555080600260006101000a81548173ffffffffffffffffffffffffffffffffffffffff021916908373ffffffffffffffffffffffffffffffffffffffff160217905550610168565b600080fd5b50611c75806101786000396000f3006060604052600436106100ba576000357c0100000000000000000000000000000000000000000000000000000000900463ffffffff16806309de5217146100bf5780631b6527b4146100f85780632c537c851461015b5780635bfadb241461019d5780637dfda44c146101c95780638da5cb5b146101ec5780639980ec8614610241578063a6f9dae114610278578063c7daae0a146102b1578063d53df329146102da578063dd46706414610306578063f6aacfb114610329575b600080fd5b34156100ca57600080fd5b6100f6600480803573ffffffffffffffffffffffffffffffffffffffff16906020019091905050610364565b005b341561010357600080fd5b61011960048080359060200190919050506104b5565b604051808273ffffffffffffffffffffffffffffffffffffffff1673ffffffffffffffffffffffffffffffffffffffff16815260200191505060405180910390f35b341561016657600080fd5b61019b600480803590602001909190803573ffffffffffffffffffffffffffffffffffffffff169060200190919050506104f2565b005b34156101a857600080fd5b6101c760048080359060200190919080359060200190919050506105d7565b005b34156101d457600080fd5b6101ea600480803590602001909190505061074d565b005b34156101f757600080fd5b6101ff610913565b604051808273ffffffffffffffffffffffffffffffffffffffff1673ffffffffffffffffffffffffffffffffffffffff16815260200191505060405180910390f35b341561024c57600080fd5b6102626004808035906020019091905050610938565b6040518082815260200191505060405180910390f35b341561028357600080fd5b6102af600480803573ffffffffffffffffffffffffffffffffffffffff16906020019091905050610ab7565b005b34156102bc57600080fd5b6102c4610c10565b6040518082815260200191505060405180910390f35b34156102e557600080fd5b6103046004808035906020019091908035906020019091905050610c16565b005b341561031157600080fd5b6103276004808035906020019091905050610da3565b005b341561033457600080fd5b61034a6004808035906020019091905050610f0d565b604051808215151515815260200191505060405180910390f35b6000809054906101000a900473ffffffffffffffffffffffffffffffffffffffff1673ffffffffffffffffffffffffffffffffffffffff163373ffffffffffffffffffffffffffffffffffffffff16148061040c5750600160009054906101000a900473ffffffffffffffffffffffffffffffffffffffff1673ffffffffffffffffffffffffffffffffffffffff163373ffffffffffffffffffffffffffffffffffffffff16145b156104ad576000809054906101000a900473ffffffffffffffffffffffffffffffffffffffff1673ffffffffffffffffffffffffffffffffffffffff163373ffffffffffffffffffffffffffffffffffffffff1614156104a85780600160006101000a81548173ffffffffffffffffffffffffffffffffffffffff021916908373ffffffffffffffffffffffffffffffffffffffff1602179055505b6104b2565b600080fd5b50565b60006004600083815260200190815260200160002060009054906101000a900473ffffffffffffffffffffffffffffffffffffffff169050919050565b6004600083815260200190815260200160002060009054906101000a900473ffffffffffffffffffffffffffffffffffffffff1673ffffffffffffffffffffffffffffffffffffffff16633ab1a494826040518263ffffffff167c0100000000000000000000000000000000000000000000000000000000028152600401808273ffffffffffffffffffffffffffffffffffffffff1673ffffffffffffffffffffffffffffffffffffffff168152602001915050600060405180830381600087803b15156105bf57600080fd5b6102c65a03f115156105d057600080fd5b5050505050565b60008060009054906101000a900473ffffffffffffffffffffffffffffffffffffffff1673ffffffffffffffffffffffffffffffffffffffff163373ffffffffffffffffffffffffffffffffffffffff1614806106815750600160009054906101000a900473ffffffffffffffffffffffffffffffffffffffff1673ffffffffffffffffffffffffffffffffffffffff163373ffffffffffffffffffffffffffffffffffffffff16145b15610743576004600084815260200190815260200160002060009054906101000a900473ffffffffffffffffffffffffffffffffffffffff1690508073ffffffffffffffffffffffffffffffffffffffff16636198e339836040518263ffffffff167c010000000000000000000000000000000000000000000000000000000002815260040180828152602001915050600060405180830381600087803b151561072a57600080fd5b6102c65a03f1151561073b57600080fd5b505050610748565b600080fd5b505050565b6000809054906101000a900473ffffffffffffffffffffffffffffffffffffffff1673ffffffffffffffffffffffffffffffffffffffff163373ffffffffffffffffffffffffffffffffffffffff1614806107f55750600160009054906101000a900473ffffffffffffffffffffffffffffffffffffffff1673ffffffffffffffffffffffffffffffffffffffff163373ffffffffffffffffffffffffffffffffffffffff16145b1561090b5760006004600083815260200190815260200160002060009054906101000a900473ffffffffffffffffffffffffffffffffffffffff1673ffffffffffffffffffffffffffffffffffffffff1614151561085257610906565b600061085c61108c565b141561086b5761086a611154565b5b600360055481548110151561087c57fe5b906000526020600020900160009054906101000a900473ffffffffffffffffffffffffffffffffffffffff166004600083815260200190815260200160002060006101000a81548173ffffffffffffffffffffffffffffffffffffffff021916908373ffffffffffffffffffffffffffffffffffffffff1602179055506001600554016005819055505b610910565b600080fd5b50565b6000809054906101000a900473ffffffffffffffffffffffffffffffffffffffff1681565b6000806000809054906101000a900473ffffffffffffffffffffffffffffffffffffffff1673ffffffffffffffffffffffffffffffffffffffff163373ffffffffffffffffffffffffffffffffffffffff1614806109e35750600160009054906101000a900473ffffffffffffffffffffffffffffffffffffffff1673ffffffffffffffffffffffffffffffffffffffff163373ffffffffffffffffffffffffffffffffffffffff16145b15610aac576004600084815260200190815260200160002060009054906101000a900473ffffffffffffffffffffffffffffffffffffffff1690508073ffffffffffffffffffffffffffffffffffffffff1663d321fe296000604051602001526040518163ffffffff167c0100000000000000000000000000000000000000000000000000000000028152600401602060405180830381600087803b1515610a8a57600080fd5b6102c65a03f11515610a9b57600080fd5b505050604051805190509150610ab1565b600080fd5b50919050565b6000809054906101000a900473ffffffffffffffffffffffffffffffffffffffff1673ffffffffffffffffffffffffffffffffffffffff163373ffffffffffffffffffffffffffffffffffffffff161480610b5f5750600160009054906101000a900473ffffffffffffffffffffffffffffffffffffffff1673ffffffffffffffffffffffffffffffffffffffff163373ffffffffffffffffffffffffffffffffffffffff16145b15610c08576000809054906101000a900473ffffffffffffffffffffffffffffffffffffffff1673ffffffffffffffffffffffffffffffffffffffff163373ffffffffffffffffffffffffffffffffffffffff161415610bfe57806000806101000a81548173ffffffffffffffffffffffffffffffffffffffff021916908373ffffffffffffffffffffffffffffffffffffffff160217905550610c03565b600080fd5b610c0d565b600080fd5b50565b60055481565b60008060009054906101000a900473ffffffffffffffffffffffffffffffffffffffff1673ffffffffffffffffffffffffffffffffffffffff163373ffffffffffffffffffffffffffffffffffffffff161480610cc05750600160009054906101000a900473ffffffffffffffffffffffffffffffffffffffff1673ffffffffffffffffffffffffffffffffffffffff163373ffffffffffffffffffffffffffffffffffffffff16145b15610d9957818311151515610cd457600080fd5b8290505b81811015610d94576000610cea61108c565b1415610cf957610cf8611154565b5b6003600554815481101515610d0a57fe5b906000526020600020900160009054906101000a900473ffffffffffffffffffffffffffffffffffffffff166004600083815260200190815260200160002060006101000a81548173ffffffffffffffffffffffffffffffffffffffff021916908373ffffffffffffffffffffffffffffffffffffffff1602179055508080600101915050610cd8565b610d9e565b600080fd5b505050565b60008060009054906101000a900473ffffffffffffffffffffffffffffffffffffffff1673ffffffffffffffffffffffffffffffffffffffff163373ffffffffffffffffffffffffffffffffffffffff161480610e4d5750600160009054906101000a900473ffffffffffffffffffffffffffffffffffffffff1673ffffffffffffffffffffffffffffffffffffffff163373ffffffffffffffffffffffffffffffffffffffff16145b15610f04576004600083815260200190815260200160002060009054906101000a900473ffffffffffffffffffffffffffffffffffffffff1690508073ffffffffffffffffffffffffffffffffffffffff1663f83d08ba6040518163ffffffff167c0100000000000000000000000000000000000000000000000000000000028152600401600060405180830381600087803b1515610eeb57600080fd5b6102c65a03f11515610efc57600080fd5b505050610f09565b600080fd5b5050565b6000806000809054906101000a900473ffffffffffffffffffffffffffffffffffffffff1673ffffffffffffffffffffffffffffffffffffffff163373ffffffffffffffffffffffffffffffffffffffff161480610fb85750600160009054906101000a900473ffffffffffffffffffffffffffffffffffffffff1673ffffffffffffffffffffffffffffffffffffffff163373ffffffffffffffffffffffffffffffffffffffff16145b15611081576004600084815260200190815260200160002060009054906101000a900473ffffffffffffffffffffffffffffffffffffffff1690508073ffffffffffffffffffffffffffffffffffffffff1663a4e2d6346000604051602001526040518163ffffffff167c0100000000000000000000000000000000000000000000000000000000028152600401602060405180830381600087803b151561105f57600080fd5b6102c65a03f1151561107057600080fd5b505050604051805190509150611086565b600080fd5b50919050565b60008060009054906101000a900473ffffffffffffffffffffffffffffffffffffffff1673ffffffffffffffffffffffffffffffffffffffff163373ffffffffffffffffffffffffffffffffffffffff1614806111365750600160009054906101000a900473ffffffffffffffffffffffffffffffffffffffff1673ffffffffffffffffffffffffffffffffffffffff163373ffffffffffffffffffffffffffffffffffffffff16145b1561114c57600554600380549050039050611151565b600080fd5b90565b60008060009054906101000a900473ffffffffffffffffffffffffffffffffffffffff1673ffffffffffffffffffffffffffffffffffffffff163373ffffffffffffffffffffffffffffffffffffffff1614806111fe5750600160009054906101000a900473ffffffffffffffffffffffffffffffffffffffff1673ffffffffffffffffffffffffffffffffffffffff163373ffffffffffffffffffffffffffffffffffffffff16145b156112e457600260009054906101000a900473ffffffffffffffffffffffffffffffffffffffff1661122e6112ec565b808273ffffffffffffffffffffffffffffffffffffffff1673ffffffffffffffffffffffffffffffffffffffff168152602001915050604051809103906000f080151561127a57600080fd5b90506003805480600101828161129091906112fc565b9160005260206000209001600083909190916101000a81548173ffffffffffffffffffffffffffffffffffffffff021916908373ffffffffffffffffffffffffffffffffffffffff160217905550506112e9565b600080fd5b50565b6040516108fc8061134e83390190565b815481835581811511611323578183600052602060002091820191016113229190611328565b5b505050565b61134a91905b8082111561134657600081600090555060010161132e565b5090565b9056006060604052341561000f57600080fd5b6040516020806108fc8339810160405280805190602001909190505033600160006101000a81548173ffffffffffffffffffffffffffffffffffffffff021916908373ffffffffffffffffffffffffffffffffffffffff160217905550806000806101000a81548173ffffffffffffffffffffffffffffffffffffffff021916908373ffffffffffffffffffffffffffffffffffffffff16021790555050610840806100bc6000396000f300606060405260043610610078576000357c0100000000000000000000000000000000000000000000000000000000900463ffffffff1680633ab1a4941461007d5780633ccfd60b146100b65780636198e339146100e3578063a4e2d63414610106578063d321fe2914610133578063f83d08ba1461015c575b600080fd5b341561008857600080fd5b6100b4600480803573ffffffffffffffffffffffffffffffffffffffff16906020019091905050610171565b005b34156100c157600080fd5b6100c9610211565b604051808215151515815260200191505060405180910390f35b34156100ee57600080fd5b61010460048080359060200190919050506104b5565b005b341561011157600080fd5b61011961066f565b604051808215151515815260200191505060405180910390f35b341561013e57600080fd5b610146610686565b6040518082815260200191505060405180910390f35b341561016757600080fd5b61016f610690565b005b600160009054906101000a900473ffffffffffffffffffffffffffffffffffffffff1673ffffffffffffffffffffffffffffffffffffffff163373ffffffffffffffffffffffffffffffffffffffff161415156101cd57600080fd5b80600260006101000a81548173ffffffffffffffffffffffffffffffffffffffff021916908373ffffffffffffffffffffffffffffffffffffffff16021790555050565b6000600160009054906101000a900473ffffffffffffffffffffffffffffffffffffffff1673ffffffffffffffffffffffffffffffffffffffff163373ffffffffffffffffffffffffffffffffffffffff16141580156102bf5750600260009054906101000a900473ffffffffffffffffffffffffffffffffffffffff1673ffffffffffffffffffffffffffffffffffffffff163373ffffffffffffffffffffffffffffffffffffffff1614155b156102c957600080fd5b6000809054906101000a900473ffffffffffffffffffffffffffffffffffffffff1673ffffffffffffffffffffffffffffffffffffffff1663a9059cbb600260009054906101000a900473ffffffffffffffffffffffffffffffffffffffff166000809054906101000a900473ffffffffffffffffffffffffffffffffffffffff1673ffffffffffffffffffffffffffffffffffffffff166370a08231306000604051602001526040518263ffffffff167c0100000000000000000000000000000000000000000000000000000000028152600401808273ffffffffffffffffffffffffffffffffffffffff1673ffffffffffffffffffffffffffffffffffffffff168152602001915050602060405180830381600087803b15156103ed57600080fd5b6102c65a03f115156103fe57600080fd5b505050604051805190506000604051602001526040518363ffffffff167c0100000000000000000000000000000000000000000000000000000000028152600401808373ffffffffffffffffffffffffffffffffffffffff1673ffffffffffffffffffffffffffffffffffffffff16815260200182815260200192505050602060405180830381600087803b151561049557600080fd5b6102c65a03f115156104a657600080fd5b50505060405180519050905090565b600160009054906101000a900473ffffffffffffffffffffffffffffffffffffffff1673ffffffffffffffffffffffffffffffffffffffff163373ffffffffffffffffffffffffffffffffffffffff1614151561051157600080fd5b600260149054906101000a900460ff16801561052e575080600354145b15610667576000809054906101000a900473ffffffffffffffffffffffffffffffffffffffff1673ffffffffffffffffffffffffffffffffffffffff1663a9059cbb600160009054906101000a900473ffffffffffffffffffffffffffffffffffffffff166003546000604051602001526040518363ffffffff167c0100000000000000000000000000000000000000000000000000000000028152600401808373ffffffffffffffffffffffffffffffffffffffff1673ffffffffffffffffffffffffffffffffffffffff16815260200182815260200192505050602060405180830381600087803b151561062357600080fd5b6102c65a03f1151561063457600080fd5b505050604051805190505060006003819055506000600260146101000a81548160ff02191690831515021790555061066c565b600080fd5b50565b6000600260149054906101000a900460ff16905090565b6000600354905090565b600160009054906101000a900473ffffffffffffffffffffffffffffffffffffffff1673ffffffffffffffffffffffffffffffffffffffff163373ffffffffffffffffffffffffffffffffffffffff161415156106ec57600080fd5b60001515600260149054906101000a900460ff161515141561080d576001600260146101000a81548160ff0219169083151502179055506000809054906101000a900473ffffffffffffffffffffffffffffffffffffffff1673ffffffffffffffffffffffffffffffffffffffff166370a08231306000604051602001526040518263ffffffff167c0100000000000000000000000000000000000000000000000000000000028152600401808273ffffffffffffffffffffffffffffffffffffffff1673ffffffffffffffffffffffffffffffffffffffff168152602001915050602060405180830381600087803b15156107e757600080fd5b6102c65a03f115156107f857600080fd5b50505060405180519050600381905550610812565b600080fd5b5600a165627a7a72305820bbf6463ad76d84823cec6bc30be8a8757f3044cc1b5b7d86e8157ca43614f8040029a165627a7a723058208dbccac642b2fdf5a22255c116c4d3dcf1608bcc63096254b90639d58b3970f00029",
  "source": "pragma solidity ^0.4.4;\n\nimport './GRWIBankAccount.sol';\n\ncontract GRWIBank {\n\n    address public owner ;\n    address private operator ;\n    ForeignToken private token;\n\tGRWIBankAccount[] private availableAddresses;\n    mapping(uint256 => address) private assignments ;\n\t\n\n    uint256 public firstFreeAddressIndex = 0;\n    \n    modifier onlyTrusted{\n        if(msg.sender == owner || msg.sender == operator){\n            _;\n        }\n        else{\n            revert();\n        }\n    }\n\n    function changeOperatorAccount(address addr) onlyTrusted public{\n        if(msg.sender==owner){\n            operator = addr;\n        }\n    }    \n    function changeOwner(address newOwner) onlyTrusted public{\n        if(msg.sender==owner){\n            owner = newOwner;\n        }\n        else{\n          revert();   \n        \n        }\n    }\n    function GRWIBank(address _token) onlyTrusted public{\n        owner = msg.sender;\n\t\ttoken = ForeignToken(_token);\n    }\t\n    function createNewAccount() onlyTrusted internal{\n        var a = new GRWIBankAccount(token);\n        availableAddresses.push(a);\n    }\n    function lock(uint256 addressId) onlyTrusted public {\n        GRWIBankAccount b = GRWIBankAccount(assignments[addressId]);\n        b.lock();\n    }\n    function unlock(uint256 addressId,uint256 _lockedAmount) onlyTrusted public{\n        GRWIBankAccount b = GRWIBankAccount(assignments[addressId]);\n        b.unlock(_lockedAmount);\n    }\n    function getAmount(uint256 addressId) constant onlyTrusted public returns(uint256){\n        GRWIBankAccount b = GRWIBankAccount(assignments[addressId]);\n        return b.getAmount();\n    }\n    function isLocked(uint256 addressId) constant onlyTrusted public returns(bool){\n        GRWIBankAccount b = GRWIBankAccount(assignments[addressId]);\n        return b.isLocked();\n    }\n    \n    function getAvailableAddressesCount() private constant onlyTrusted returns(uint256){\n        return availableAddresses.length-firstFreeAddressIndex;\n    }\n    \n    function AssignMultipleAddresses(uint256 startHolderId,uint256 endHolderId) onlyTrusted public{\n        require(startHolderId<=endHolderId);\n        for(uint256 i = startHolderId; i<endHolderId ; i++){\n          if(getAvailableAddressesCount()==0){\n            createNewAccount();\n          }\n          assignments[i] = availableAddresses[firstFreeAddressIndex];\n        }\n    }\n    \n    function bindWithWithdrawAccount(uint256 holderId, address sendBackAddress){\n      (GRWIBankAccount(assignments[holderId])).setWithdrawAddress(sendBackAddress);\n    }\n    \n    function AssignAddress(uint256 holderId) public{\n        if(msg.sender==owner || msg.sender==operator){\n            if(assignments[holderId]!=0){ // nie można stworzyć 2 adresów dla jednego klienta\n    \n            }\n            else{\n                if(getAvailableAddressesCount()==0){\n                        createNewAccount();\n                }\n                assignments[holderId] = availableAddresses[firstFreeAddressIndex];\n                firstFreeAddressIndex = firstFreeAddressIndex+1;\n            }\n        }\n        else{\n          revert();   \n        \n        }\n\n    }\n    function GetAssignedAddress(uint256 holderId) public constant returns(address){\n         return assignments[holderId];\n    }\n}\n",
  "sourcePath": "/home/ec2-user/environment/GRWI_Tools/BlockchainSolutions/contracts/GRWIBank.sol",
  "compiler": {
    "name": "solc",
    "version": "0.4.19+commit.c4cbbb05.Emscripten.clang"
  },
  "schemaVersion": "1.0.1",
  "updatedAt": "2018-03-07T21:06:09.392Z"
}